:020000040800F2
:10000000F0040020D500000869240008211C000825
:1000100000000000000000000000000000000000E0
:10002000000000000000000000000000052500089E
:100030000000000000000000B12400083525000881
:100040000501000805010008050100080501000878
:100050000501000805010008050100080501000868
:100060000501000805010008050100080501000858
:100070000501000805010008050100080501000848
:100080000501000800000000000000000501000854
:10009000000000000501000805010008251C0008FB
:1000A0000000000005010008050100080501000826
:1000B00005010008000000007104000805010008A7
:1000C0000348854600F000F9004800474D26000827
:1000D000F00400200C4880F308880C480168090EE1
:1000E0000B4A914205D10B480B4901600B480C4962
:1000F00001600C4880470C480047FEE7FEE7FEE73A
:10010000FEE7FEE7FEE70000F00400200400000028
:100110001F00000018100240010000000000014014
:1001200000000000B9250008C100000830B50B46EA
:10013000014600202022012409E00D46D5409D42C1
:1001400005D31D469540491B254695404019154647
:10015000521E002DF1DC30BD0321001D401E03782E
:1001600012021A43491EF9D510467047F8B50246E7
:100170004A40D40F42004B0052085B089A4202D218
:100180000246084611464A0023D0C30D4A00DDB29C
:10019000120EAD1A202D35DA49020126490AF6055C
:1001A0008A19002C00D0524220214F1B1146B94021
:1001B0002A411018C20D9A4221D0002C17D0012DCF
:1001C00008DCDA05801AD20F8019D207DBB200F002
:1001D00041F8F8BDDA05801A012340001B06C0185B
:1001E00080185A428018CA0F1043490007E0490896
:1001F000C2071143DA05801A80194008801800F000
:1002000021F8F8BD61000122511A001BF7E7012215
:10021000D2075140AAE70122D2075040A6E7420088
:1002200005D04200120E52428A4201DB0020704784
:10023000C9050818704710B500229623114600F032
:1002400009F810BD002904DA401C490001D140081A
:100250004000704770B40024050C05D11024000440
:1002600002D1002921D01124050E01D10002083449
:10027000050F01D10001241D850F01D18000A41CB0
:10028000002801DB4000641C002908D020252E1B1B
:100290000D46F540A14000D0012129430843010645
:1002A0001B1B000ADB1D02D5002070BC7047DB055C
:1002B000181880180029F8DA401C4900F5D170BCE4
:1002C0004008400070470000064C0125064E05E03E
:1002D000E36807CC2B430C3C98471034B442F7D367
:1002E000FFF7F2FE282700084827000870B50A012A
:1002F0001346FF330468B133E55804242540446BAA
:10030000A5600568446BED5853D0ED08656004683E
:10031000E3580224456B2340EB601346FF33056826
:10032000B533ED58466B2D072D0F35610568EB5839
:10033000456B1B041B0EEB611346FF330568B93395
:10034000ED58466B35750568ED58466B2D0A757589
:100350000568ED58466B2D0CB5750568EB58456B77
:100360001B0EEB75FF320368BD329B58456B2B7635
:1003700003689B58456B1B0A6B7603689B58456B5B
:100380001B0CAB7603689A58436B120EDA76202268
:100390000029016810D00B6913430B6101684A6999
:1003A00010239A434A61014620314A7E222A0AD00C
:1003B00023E06D0D2560AAE7CB681343CB6001688D
:1003C0004A69A243EEE702685369FF240134A3435C
:1003D0005361026853696400A3435361026853691F
:1003E0006400A3435361026853696400A3435361EB
:1003F000026853692401A34353614A7E322A05D01F
:1004000001224A7600F0C6FA002070BD1222F8E7F9
:1004100010B501684A69520852004A61014620310C
:100420004A7E122A19D102685369FF240134A3437A
:100430005361026853696400A343536102685369BE
:100440006400A3435361026853696400A34353618A
:10045000026853692401A34353614A7E322A05D0BE
:1004600001224A7600F0A4FB002010BD2222F8E70A
:1004700010B5024800F0B8F810BD000024000020BC
:10048000094D7D24E40001226021284600F063FC30
:10049000204600F0B2FB00226021284600F05BFC01
:1004A000204600F0AAFBEEE700040048F0B50C7D02
:1004B00001231A46A2400468FF34FF340234256841
:1004C0001D4325600368FF33FF3302331C683F255B
:1004D0002D02AC431C600368FF33FF3302331C68FA
:1004E0004D6A2D022C431C600368FF33FF33023337
:1004F000DC699443DC610924A401CB69251D002B30
:100500001AD10368FF33FF330233DE689643DE609F
:100510008B898E881B04B6B24F6933430668FF008F
:100520003F19F3510B890E881B04B6B24F69334350
:100530000668FF007F19F351CB69012B1AD10368BC
:10054000FF33FF330233DE681643DE600B888E888C
:100550001B04B6B24F6933430668FF003C193351A0
:100560000B898C891B04A4B24E6923430468F600EE
:10057000751963518B69002B036809D0FF33FF3372
:1005800002335C6814435C600B69002B06D00CE0FE
:10059000FF33FF3302335C689443F4E70368FF33AF
:1005A000FF3302335C6994435C610B69012B06D114
:1005B0000368FF33FF3302335C6914435C61096AEB
:1005C000012906D10168FF31FF310231CB691343A4
:1005D000CB610068FF30FF300230016849084900F4
:1005E00001600020F0BD704770B5044600684169A5
:1005F000C943C9070ED182684B49914307D082682D
:100600004A49914303D081684948884302D1204632
:10061000FFF7FEFE20684169C943890706D4C06818
:10062000800703D000212046FFF760FE2068416963
:10063000C943C90606D40069800703D001212046BA
:10064000FFF754FE20688169CA070121002A0AD0F9
:100650004269D243D20506D44269D243120402D47D
:10066000E26B0A43E263826992070BD54269D24387
:10067000920507D44269D243120403D4E26B0223E9
:100680001A43E263826953070422002B0ADA4369A2
:10069000DB435B0506D44369DB431B0402D4E36BF5
:1006A0001343E36383695B065B0F23D04369DB433A
:1006B0001B051FD44369DB431B041BD485697023CE
:1006C0001D40402D26D006DC102D09D0202D0AD04B
:1006D000302D0CD11BE0502D1FD0602D07D11FE015
:1006E000E56B082601E0E56B10263543E563856977
:1006F0009D438561E06B002808D020684368134360
:100700004360392001552046FFF76DFF70BDE56B52
:100710002026EAE7E56B4026E7E7E56B8026E4E77D
:10072000E56BFF260136E0E7030000040003000844
:1007300000000310F8B5040006D025462035687E79
:100740000026002802D005E00120F8BD2E762046C4
:1007500000F086F80220687621680A6882430A6001
:100760002068016801221143016000F0FBFA07468E
:1007700004E000F0F7FAC01B0A285ED82068406841
:10078000C007F6D0206841680427C907002960D057
:10079000A2698021012A02683DD08A430260E06993
:1007A000402101282068026837D08A430260206A0D
:1007B000202101282068026831D08A430260616AE2
:1007C0001020012921680A682BD082430A60A16A9F
:1007D0000820012921680A6825D082430A60E06A5E
:1007E00001282068016820D0B9430160E168A06851
:1007F000626908432169114308436168491E08433F
:100800002168C8612068016849084900016000F05A
:10081000A9FA009015E00A43C0E70A43C6E70A4375
:10082000CCE70243D2E70243D8E73943DDE700F0E3
:1008300099FA0099401A0A2803D9032068762E767F
:10084000F8BD20684068C007F1D120684068C00743
:1008500001D06F7678E7E663012068760020F8BD66
:10086000F0B505460068264991B0884245D1254833
:10087000C269012149060A43C261C06902260840D3
:100880000A900320C0020B9003200E90002404273E
:1008900009200C960D940BA90F97C00600F0B8F92B
:1008A000002211461E2000F027FE1E2000F01AFE36
:1008B0001548012201461C3169632863134904600D
:1008C000096887600661C4604160027544750594DB
:1008D000480B0090C8000694001D01900C48079238
:1008E00000680892410BC000001D0494029103901F
:1008F000099469462846FFF7D9FD11B0F0BD000004
:100900000064004000100240B000002014000020ED
:100910001800002070B502462032537E012B02D011
:10092000537E122B33D1137E012B30D0012313764B
:10093000537E122B27D0222353760023C3630468EF
:100940006569FF260136354365610468656976008F
:1009500035436561046865697600354365610468FF
:10096000656976003543656104686569360135431C
:100970006561137600680029416906D01022114391
:100980004161002070BD3223D6E70222F7E7022042
:1009900070BD000070B50446406B8168042955D1D4
:1009A00040684104490F3CD12B4A410631D401062D
:1009B00023D48506AD0E042028492B0001F02AFE21
:1009C0000A0D06181A0D0D0D0A11150D107808756F
:1009D000012001E0224A06E00861224800F046F8C2
:1009E0001FE01F4A121D126805E01D4A0832FAE78F
:1009F000526800E0D2684A61EEE78006800E03008C
:100A000001F008FE030F0F030F00174840699060C4
:100A100007E08006800E012803D10020506001F01D
:100A200073FD606B8188890410D5407DC00702D0BA
:100A300001F054FE01E001F047FE606B407D80074D
:100A400002D501F05FFE01E001F052FE00212046D8
:100A5000FFF760FF70BD000004000020B000002020
:100A6000ACF7FF1F24000020CC000020F8B504469E
:100A700000688168274649012037002905DB816825
:100A8000090102D48168C9007ED5397E012906D0CA
:100A9000012139768168490103D5002107E0022050
:100AA000F8BD8168090101D5012100E002210D0195
:100AB0002E46FF3681368159C907C90F8151206BF7
:100AC0008368002B65D021688A591A43C36840683F
:100AD000C00003431A438A51206B017C0907090FA8
:100AE00001612846FF30216885300A581209120139
:100AF0000A5021680A58236B1B691A430A50206B5D
:100B000000901530FFF728FB010200982268007D55
:100B100001432846FF3089301150206B0090193076
:100B2000FFF71AFB01020098FF35007E01432068A1
:100B30008D354151787E222834D0122078760020DD
:100B4000E063387620684169FF2201321143416138
:100B50002068416952001143416120684169520097
:100B6000114341612068416952001143416120688D
:100B7000416912011143416121684A690120024320
:100B80004A6121688A5900E00EE002438A51002040
:100B9000F8BD22689159C368008819434005014394
:100BA000915199E73220C9E7042078760120F8BDF9
:100BB000704770B50024014620314A78022A03D0DC
:100BC00004218163012416E0026813680E25AB43FB
:100BD0001360026813685B085B0013600122056CF8
:100BE0001346AB40C56B6B604A7000220A70416BC4
:100BF000002900D08847204670BD31B500F0B2F81A
:100C0000044600F0AFF80099001B8842F9D338BDC4
:100C1000F8B5002389E001249C402A46A4462240DE
:100C20007ED04C68022C01D0122C0CD1DC08A40020
:100C300027183C6A5D07ED0E0F26AE40B4430E69DF
:100C4000AE4026433E6205685E000324B4400F793F
:100C5000A543BF07BF0FB7402F4307604D68012D65
:100C600005D0022D03D0112D01D0122D0ED1856893
:100C7000CF68A543B7402F43876047686546AF43B9
:100C80000D79ED06ED0F9D403D434560C568A543D8
:100C90008C68B4402C43C4604C68E40044D5264CB6
:100CA000A56901263543A561A4699D0834400094D7
:100CB000224CAD002F19BC689D072E0F0F25B540A3
:100CC000AC430925ED06A84201D100250AE01C4DE0
:100CD000A84201D1012505E01A4DA84201D1022503
:100CE00000E00525B5402543BD60174C25684E68DA
:100CF0009543F60300D51543256065684E68954316
:100D0000B60300D515436560A5684E689543F602A5
:100D100000D51543A560E5684E689543B60200E02E
:100D200002E000D51543E5605B1C0A681546DA4011
:100D300000D070E7F8BD0000001002400000014044
:100D40000004004800080048000401400069084011
:100D500000D001207047002A01D081617047816274
:100D60007047000001480068704700000000002044
:100D700070B5024640325378202B1CD11378012BDA
:100D800019D00123137024245470046825689D43EE
:100D90002560046825681E03B5432560046825683E
:100DA0000D432560006801681943016020205070E0
:100DB0000020107070BD022070BD70B50246403238
:100DC0005378202B1BD11378012B18D001241470D9
:100DD0002423537003681D68A5431D6005682B68B4
:100DE0000F263602B34309021943296000680168DF
:100DF00021430160202050700020107070BD02203F
:100E000070BD7047704770B503689A691968D4055A
:100E100007D50C0605D5446C01252C4344642C02EF
:100E2000DC61530508D50B0606D5436C0824234323
:100E30004364E3010468E361920508D5090606D519
:100E4000416C02221143416411020268D161416C7C
:100E50000B22114202D0416C00F088FF70BD026885
:100E600091691268436B002B00D018477047704798
:100E700070B5040006D02546403568780026002865
:100E800002D005E0012070BD2E70204600F02EFA41
:100E900024206870206801684908490001600F211A
:100EA0006068090688432168086121688A68012012
:100EB000C00382438A60E1680129A16808D0212229
:100EC0009202114322689160E168022902D005E094
:100ED0000143F7E701212268C902516021684A688D
:100EE0000F4B1A434A602168CA688243CA6061692D
:100EF00020690843A169090208432168C860216A82
:100F0000E0690843216808602068016801221143F4
:100F100001606664202068702663AE70002070BD9A
:100F20000080000270470000FFB5054604464035CA
:100F3000687881B020287ED1287801287BD00120D4
:100F40002870FFF70FFF0746012200901923D103F5
:100F5000204601F07DF900283FD121206870102043
:100F6000A8700026666403986062049860856663D2
:100F7000618D01204003FF2903D9FF2222850090C3
:100F800034E0618D2185009036E02046029901F021
:100F90004DF936E001F0A7F9002803D0606C042871
:100FA00047D01AE0606A411C616201782068816262
:100FB000608D401E6085208D401E0004000C208541
:100FC0001FD1608D00281CD0009700228021204670
:100FD0000A9B01F03DF9002802D0032005B0F0BDC6
:100FE000608DFF2805D9FF222285009601231B066C
:100FF000CBE7608D20850096208D0123C2B25B0671
:10100000C3E7608D0A9900283A462046C2D101F014
:1010100043F90028C2D121682020C86121684A68AC
:10102000064B1A404A606870AE702E700020D5E7FB
:1010300001E00120D2E70220D0E7000000E800FE36
:10104000FFB5054604464035687883B0202873D143
:101050000C98002871D00D9800286ED028780128AF
:101060006AD001202870FFF77DFE0746012200901C
:101070001923D103204601F0EBF8002876D1222075
:1010800068704020A870002666640C9860620D9815
:10109000608566630E980090019704A90EC92046EA
:1010A00000F0CEFF002804D0606C2E70042860D0C1
:1010B0005CE0618D09208002FF2905D9FF2222858D
:1010C00001231B06009006E0618D21850090208D94
:1010D0000123C2B25B062046049901F0A7F80097ED
:1010E0000022042120460E9B01F0B2F800283DD1D9
:1010F0002068416A606A421C62620170208D401E55
:1011000081B22185608D401E6085002921D1608DCE
:1011100000281ED000970022802120460E9B01F05F
:1011200097F8002822D1608DFF2807D9FF22228559
:1011300001231B06009608E02AE01AE0608D208556
:101140000096208D0123C2B25B062046049901F06F
:101150006DF8608D0028C2D13A4620460E9901F004
:101160009BF8002807D0606C042802D0032007B049
:10117000F0BD0120FBE721682020C86121684A6892
:10118000044B1A404A606870AE702E700020EEE783
:101190000220ECE700E800FEFFB5054604464035B6
:1011A000687883B0202876D10C98002874D00D98E8
:1011B000002871D0287801286DD001202870FFF711
:1011C000D1FD0746012200901923D103204601F0EA
:1011D0003FF8002853D1212068704020A8700026D5
:1011E00066640C9860620D98608566630E98009046
:1011F000019704A90EC9204600F057FF002804D02B
:10120000606C2E7004286AD039E0608DFF2805D903
:10121000FF22228501231B06009606E0608D2085B3
:101220000096208D0123C2B25B062046049900F08F
:10123000FDFF3A4620460E9901F055F8002803D0EC
:10124000606C04284BD01AE0606A411C616221681E
:1012500000788862608D401E6085208D401E0004ED
:10126000000C208524D1608D002821D00097002219
:10127000802120460E9B00F0EBFF002802D00320C7
:1012800007B0F0BD608DFF2807D9FF22228501231A
:101290001B06009608E024E021E0608D2085009682
:1012A000208D0123C2B25B062046049900F0BEFFE8
:1012B000608D0028BDD13A4620460E9900F0ECFF23
:1012C0000028BDD120682021C16120684268064BFA
:1012D0001A4042606970AE702E700020D0E7012085
:1012E000CEE70220CCE7000000E800FE00B5006871
:1012F000134987B0884220D1032040020090022089
:101300000190012002900320039004200490092002
:101310006946C006FFF77CFC0A48C26901214905FD
:101320000A43C261C0690022084005901146172097
:1013300000F0E2F8172000F0D5F807B000BD00007B
:101340000054004000100240704770470248016896
:10135000491C0160704700000000002010B50648DD
:101360000168102211430160002000F007F800F02E
:1013700017F8002010BD00000020024010B5044600
:1013800000F0EEF97D21C900FEF7D0FE00F02CFC44
:1013900000222146501E00F0AFF8002010BD0000D2
:1013A000F0B54B4C87B0A06901252843A061A06926
:1013B0000022284005901146501F00F09DF80022A1
:1013C0001146901E00F098F800221146501E00F0C1
:1013D00093F86169A8040143616161690140059165
:1013E0006169401001436161616903240140059115
:1013F0006020002603946A4661C269463548FFF7BB
:1014000007FC78200927FF0600900196694604969C
:10141000029503943846FFF7FBFB6420FFF7EDFBD2
:1014200008213846FFF792FC2B4C002802D1207887
:101430002843207010213846FFF788FC002803D18C
:10144000207802210843207020213846FFF77EFCD7
:10145000002803D120780421084320704021384619
:10146000FFF774FC002803D120780821084320707E
:10147000237801221948D2031949012B02D1812373
:1014800003700A602378022B02D1822303700A6062
:101490002378042B01D105700E602378082B02D12C
:1014A000832303700A602378032B02D18523037002
:1014B0000A602378062B02D1862303700A60237802
:1014C0000C2B02D1872303700A6007B0F0BD000027
:1014D00000100240000400481C000020040000200E
:1014E00014000020C106C90E01208840014908608F
:1014F0007047000000E100E010B500F0B7FF10BD3C
:10150000F8B5044600683E4DC00352D5E869002690
:10151000C00007D4E96928040143E961E969014091
:101520000126009137480168C90510D40168821569
:1015300011430160FFF716FC074604E0FFF712FCB9
:10154000C01B642824D82F480068C005F6D5286A37
:1015500003273F02384020D06168394081421CD0C7
:10156000286A2A6AB843012109040A432A622A6ABE
:101570008A432A622862C0070FD0FFF7F3FB00906E
:1015800008E0FFF7EFFB0099411A1F48814201D99B
:101590000320F8BD286A8007F3D5286A6168B8433C
:1015A00008432862002E04D0E96901200007814326
:1015B000E9612078C00705D0286BA1688008800009
:1015C000084328632078800605D5286B10218843BE
:1015D000E168084328632068800305D5286B8021D3
:1015E00088436169084328632088400505D5286B36
:1015F000402188432169084328630020F8BD00008A
:10160000001002400070004088130000F8B5054645
:101610004E480E460068C007C00FB0420AD24B4881
:10162000016849084900314301600068C007C00FE4
:10163000B04270D12878464C800705D56068F0210B
:101640008843A968084360602878C00753D0686859
:10165000012817D0022818D0032819D0216889073B
:10166000002958DA61688908890001436160FFF741
:1016700079FB69680746012913D002291DD0032987
:1016800027D034E021688903EAE721688901E7E788
:10169000616BC903E4E7FFF765FBC11B2D4881427D
:1016A00023D860680007800F0128F4D123E0FFF7FA
:1016B00059FBC11B2748814217D860680007800F7B
:1016C0000228F4D117E0FFF74DFBC11B21488142EE
:1016D0000BD860680007800F0328F4D10BE0FFF7F8
:1016E00041FBC11B1B48814201D90320F8BD606842
:1016F0000007800FF3D115480168C907C90FB1422F
:101700000BD9016849084900314301600068C007EE
:10171000C00FB04201D00120F8BD2878400706D59F
:101720006068072109028843E9680843606000F0A7
:101730001DF86168084A0906090F515CC84007494D
:1017400008600020FFF71AFE0020F8BD00200240CC
:101750000010024088130000182700082000002015
:1017600001480068704700002000002030B516A333
:101770000FCB89B06C460FC417A30FCB0FC41A4907
:101780004A680C20144604401848042C05D0184B15
:10179000082C04D00C2C00D1184609B030BD94029E
:1017A000240F6D462C5DC96A04AD0907090FD203E9
:1017B000695C920F022A02D0032A00D11846FEF774
:1017C000B5FC6043E9E700000203040506070809C9
:1017D0000A0B0C0D0E0F101001020304050607087A
:1017E000090A0B0C0D0E0F100010024000127A00B7
:1017F000006CDC02FEB504460078F04EF04DC007E8
:1018000048D068680007800F01281FD0686800076B
:10181000800F022804D16868C003800F022815D009
:101820006168012919D001208004002901D005290F
:1018300017D02968B143296029688143296060680D
:1018400000281BD0FFF78EFA074613E028688003B4
:1018500020D56068002876D01CE0286830432860D6
:10186000EDE7296801432960F7E7FFF77BFAC01B22
:10187000642869D828688003F7D50BE0FFF772FA6F
:10188000074604E0FFF76EFAC01B6428F1D8286809
:101890008003F7D4207880073ED568680007800F62
:1018A00014D068680007800F022804D16868C0035C
:1018B000800F01280AD0E068002828681DD0012187
:1018C00008432860FFF74EFA07460BE028688007B8
:1018D0000BD5E068012836D107E0FFF743FAC01BBB
:1018E0000228C6D828688007F7D52868F8218843D9
:1018F0002169C900084328600EE0400840002860C4
:10190000FFF730FA074604E0FFF72CFAC01B022865
:10191000AFD828688007F7D42078000724D5E0697D
:101920000028686A11D0012108436862FFF71AFA9B
:10193000074604E0FFF716FAC01B022899D8686A28
:101940008007F7D510E036E1D1E04008400068623A
:10195000FFF708FA074604E0FFF704FAC01B022865
:1019600087D8686A8007F7D42078042740070028C2
:1019700061DA00200190E869C00008D4E969B8067E
:101980000143E961E96901400120009101908D481E
:101990000168C90511D40168821511430160FFF780
:1019A000E1F9009005E0FFF7DDF90099401A64289D
:1019B00097D884480068C005F5D5A06801280AD0EA
:1019C000002801D0052811D0286A4008400028626C
:1019D000286AB84302E0286A012108432862A06807
:1019E000002812D0FFF7BEF900900AE0286A3843B9
:1019F0002862F0E7FFF7B6F90099411A7248814270
:101A000075D8286A8007F5D50DE0FFF7ABF900908F
:101A100006E0FFF7A7F90099411A6B48814266D8A2
:101A2000286A8007F5D40198002804D0E9690120CC
:101A300000078143E9612078C00635D56069012837
:101A40000CD0401D686B24D038436863686B400835
:101A500040006863FFF786F9074622E0686B384369
:101A60006863686B012108436863FFF77BF90746E9
:101A700004E0FFF777F9C01B022838D8686B8007AD
:101A8000F7D5686BF8218843A169C90008436863EA
:101A90000AE0B8436863F4E7FFF764F9C01B022863
:101AA00025D8686B8007F7D42078800637D568681A
:101AB0000007800F032813D068680007800F0228F2
:101AC00004D16868C003800F032809D0206A002869
:101AD000686B16D030436863FFF744F906460CE0A4
:101AE000686BC0031BD5206A012864D117E05BE056
:101AF000FFF738F9801B022856D8686BC003F7D56A
:101B00000DE0B0436863FFF72DF9064604E0FFF7E8
:101B100029F9801B022847D8686BC003F7D4606A94
:101B2000002846D069680907890F022943D0012699
:101B300036060228286805D0B0432860FFF712F95E
:101B4000044633E0B0432860FFF70CF9074604E091
:101B5000FFF708F9C01B022826D828688001F7D4AF
:101B6000E86A216B000900010843E862A16AE06AA3
:101B7000084369687B22D203914308436860286860
:101B800030432860FFF7EEF8044604E0FFF7EAF878
:101B9000001B022808D828688001F7D509E0FFF764
:101BA000E1F8001B022801D90320FEBD286880014E
:101BB000F5D40020FEBD0120FEBD000000000100A4
:101BC0000010024000700040881300000422044905
:101BD0000428086902D09043086170471043FBE76E
:101BE00000E000E070470000094910B5401E88423F
:101BF00001D9012010BD074C60610321081F00F0CE
:101C000035FC0020A06107202061002010BD0000ED
:101C1000FFFFFF0000E000E010B5FFF7E3FF10BD9D
:101C2000FEE7000010B50648006880694005400FD7
:101C3000034802D0FFF7E7F810BDFFF710F910BD19
:101C40006400002010B5406A01684A680123DB0384
:101C50001A434A60826B00215163C26B5163014693
:101C600040314A78602A02D0FFF701F910BD2022E6
:101C70004A70FFF7C6F810BDF0B503460022CE0744
:101C800040332824B025002E05D05E784222274616
:101C9000B74300D0F2228E0705D544265B78324345
:101CA0009C4300D02A434B0701D5B8231A43112384
:101CB0008B4301D190231A4312238B4301D160211E
:101CC0000A4300680168914301600020F0BD01688B
:101CD0008A69D243920701D400228A62006881692E
:101CE000C943C90703D0816901221143816170474B
:101CF000F8B50546044640356878282181432068B8
:101D000004D00821C16100202870F8BD8169C90391
:101D1000CF0F8169FE230E0C81681E408A05C168C1
:101D2000920D19408C46E168022912D10621D3098F
:101D30000E400B409E420BD1A16C491CA164A16CCA
:101D40000229E2D10021A1640823C361297007E0C0
:101D5000664604212046FFF78FFF00202870324698
:101D600039462046FFF74EF8F8BD0000F8B50026CA
:101D7000054640350446AE702C48E0626685606CCE
:101D80000843606468782027282823D068782928A9
:101D900020D068782A281DD007212046FFF76CFF45
:101DA0006878602800D06F702663666320680168D9
:101DB0004A041F49026817D501239B039A43026016
:101DC000A06B41632E70A06BFEF7F3FE00281DD0C0
:101DD000A06B19E003212046FFF74EFF2820687012
:101DE000266314486063E1E7120410D502680123FA
:101DF000DB039A430260E06B41632E70E06BFEF7F9
:101E0000D8FE002802D0E06B416B8847F8BD6878A7
:101E1000602804D02E702046FFF729F8F8BD6F70B7
:101E20002E702046FEF7EDFFF8BD00000000FFFF1A
:101E3000451C00081521000870B504461548E062ED
:101E400000252563202220464030064642708570DA
:101E50006563480711D52068416A606A421C626266
:101E60000170208D002808D0401E2085608D401E06
:101E70006085606C04210843606407212046FFF7F9
:101E8000FBFE21681020C86135702046FFF74AF834
:101E900070BD00000000FFFFF8B504460068202672
:101EA0000F46C66121680820C86107212046FFF758
:101EB000E3FE20684168B202114341602068416836
:101EC0002D4A114041602046FFF701FF206801685C
:101ED000254649044035002902DB0168090406D57E
:101EE000697821292FD0E16B096849686185628D85
:101EF0000421002A02D0626C0A4362647A070FD57B
:101F0000426A606A431C63620270208D002807D019
:101F1000401E2085608D401E6085606C08436064B3
:101F200000202063A8706063616C00290DD0616C93
:101F30002046FFF71BFF6878282803D13946204642
:101F4000FFF77AFFF8BDA16BCEE7E26A0B498A4240
:101F500006D0E1626E7028702046FEF7E3FFF8BD00
:101F600069786E7022292870204602D0FFF7EDF9BB
:101F7000F8BDFFF7E9F9F8BD00E800FE0000FFFF3B
:101F800070B50026044640340546A67061782820C6
:101F900029290ED061782A290AD16070222028636D
:101FA00002212846FFF768FE26702846FFF7CCF985
:101FB00070BD60702120286301212846FFF75CFE78
:101FC00026702846FFF7C1F970BD0000F7B504463A
:101FD00000680E468069C043C0062CD420272546E1
:101FE000403520688069C04380060FD5701CF8D04A
:101FF000002E05D0FEF7B6FE0299401AB042F0D985
:102000006F700020A87028700320FEBD216810208A
:10201000C8612068C7612046FFF759FE2068416803
:10202000064A11404160042060646F700020A8706F
:1020300028700120FEBD0020FEBD000000E800FE6B
:10204000F8B504460120164640031D46DAB200905A
:10205000079F0023204600F0E9F83A4620460699FB
:1020600000F041F9002803D0606C04281BD018E070
:102070002846F5B2012809D02168300A88623A461C
:102080002046069900F02FF90028EDD120688562DE
:102090000097002240212046069B00F0D9F8002836
:1020A00000D00320F8BD0120F8BDF8B5044601209A
:1020B000164640031D46DAB2C3020090079F204631
:1020C00000F0B4F83A462046069900F00CF90028D2
:1020D00003D0606C04281BD018E02846F5B2012814
:1020E00009D02168300A88623A462046069900F0F5
:1020F000FAF80028EDD1206885620097002280213F
:102100002046069B00F0A4F8002800D00320F8BD6C
:102110000120F8BDF8B50546044640352878164636
:102120000F46012811D0012028703F49F8062DD50F
:10213000F0062BD5628D1020002A08D02168C861D6
:10214000606C04210843606462E00220F8BDE36A29
:1021500001225206934202D0E36A934202D16A7886
:10216000282A08D0E26A8A4202D06978292907D051
:102170002168C8614CE039462046FFF75DFE47E024
:102180002168C8612046FFF7A2FD3EE0780717D519
:10219000700715D5608D00280BD02068426A606AF0
:1021A000431C63620270208D401E2085608D401E9E
:1021B0006085608D00282BD1E06A884225D127E018
:1021C000380706D5300704D539462046FFF790FD7D
:1021D0001EE0B8071CD5B0071AD5608D00280CD0BA
:1021E000606A411C6162216800788862608D401ECF
:1021F0006085208D401E20850AE0E06A01210906E5
:10220000884202D0E06A002802D12046FFF7B8FEDB
:10221000B80605D5B00603D539462046FFF73CFE83
:1022200000202870F8BD00000000FFFF70B50568B1
:10223000049C68688905890D1204044E11431943F2
:10224000304021430143696070BD0000009800FCEC
:10225000F8B51C4617460E46054611E0601C0FD027
:10226000002C05D0FEF77EFD0699401AA04207D942
:102270002020403568700020A87028700320F8BD29
:10228000286881693046884304D00020B842E5D0F0
:102290000020F8BD0120F9E770B516460D4604464A
:1022A0001AE0324629462046FFF790FE002801D06A
:1022B000012070BD002D04D0FEF754FD801BA84204
:1022C0000AD9616C202001436164403460700020B1
:1022D000A0702070032070BD20688069C043800614
:1022E000DFD4002070BD70B516460D4604461CE0D4
:1022F000324629462046FFF769FE002801D001201A
:1023000070BD681C11D0002D04D0FEF72BFD801B82
:10231000A8420AD9616C2020014361644034607096
:102320000020A0702070032070BD20688069C04329
:102330008007DDD4002070BDF0B585B00E21684661
:10234000017301200A2403AD03460190AC229221BF
:10235000009502941448FEF71FFF28216846017378
:102360000026467302270123A12292210E480197DD
:1023700000950294FEF710FF68460473467301232C
:10238000A22292210848019700950294FEF704FFCB
:10239000512168460173012303AA92210248009447
:1023A000FEF7C2FD05B0F0BD640000200EB50A22A4
:1023B0000421074802920191009002230022A021EB
:1023C0000448FEF73DFE0248001F416881600EBDD3
:1023D000080000206400002010B50E480C49016080
:1023E0007821416000210322816092040261C16072
:1023F0008161C16101620122416212058162426113
:10240000C162FEF797F9002801D0FEF739F810BD38
:10241000006400402400002010B511480F490160FD
:1024200010494160002181600161416181610122A7
:10243000C161C2600162FEF71BFD00280BD10021C3
:102440000748FEF795FC002805D100210448FEF757
:10245000B4FC002801D0FEF713F810BD0054004072
:10246000640000205D3E3020704700008307FF229B
:10247000DB0E9A408907090E994000280BDA000705
:10248000000F0838830808489B001818C369934355
:102490000B43C3617047830804489B001B181868EE
:1024A000904308431860704700ED00E000E400E04E
:1024B000704700001FB50A22022103A86C4607C41A
:1024C0000123AA2292210D48FEF7BAFD6846407BFF
:1024D0000009FDF7B0FE0321C943FDF7A0FE044645
:1024E0006846007BFDF7A7FE2146FDF73FFE044945
:1024F000C8603220FEF781FB1FBD00006400002091
:1025000004000020704700000EB50A22042107488D
:1025100002920191009002230022A0210448FEF7BC
:102520003BFE0A20FEF769FB0EBD000008000020FC
:102530006400002010B5FEF709FFFFF76DFB10BD2A
:1025400030B597B0012000900190039000040A90EC
:102550000001022500240B9009950C946846FFF7B2
:1025600049F9002813D107200D900F9401210E95F1
:1025700010940DA8FFF74AF8002808D120201190E8
:102580001020149011A8FEF7BBFF002801D0FDF722
:1025900077FFFFF7E5F87D21C900FDF7C7FDFFF7DD
:1025A00023FB0420FFF712FB00221146501EFEF70A
:1025B000A3FF17B030BD000013480168012211438A
:1025C00001604168114A114041600168104A1140A0
:1025D00001600168012292049143016041683F2239
:1025E000120491434160C16A09090901C162016B8A
:1025F000FF22D43291430163416B49084900416392
:102600000021816070470000001002400CB8FF08F4
:10261000FFFFF6FE30B47446641E2578641CAB429E
:1026200000D21D46635D5B00E31830BC184702E032
:1026300008C8121F08C1002AFAD17047704700204D
:1026400001E001C1121F002AFBD1704708B5FEF757
:1026500085FEFFF775FF19484269012189050A4384
:10266000426142690A400092426949110A4342614B
:10267000406908400090FFF7AFFEFFF7CDFEFFF77F
:1026800095FE00F02BF800F03DF86420FEF7B5FA57
:1026900000F01AF800F02CF800210948FEF73AF98A
:1026A000FFF74AFE074CFFF705FF6068A168884204
:1026B000F9D0A0686060FFF727FFF4E70010024040
:1026C000240000200400002010B500222021024830
:1026D000FEF741FB10BD00000004004810B50122C8
:1026E00020210248FEF737FB10BD0000000400481F
:1026F00010B5002240210248FEF72DFB10BD00005E
:102700000004004810B5012240210248FEF723FBD7
:1027100010BD0000000400480000000000000000A0
:1027200001020304060708094827000800000020EA
:10273000240000002E2600086C270008240000203A
:10274000CC0400003E26000800000000010000004C
:102750000000000000000000000000000000000079
:0C276000008000000000000000127A0061
:04000005080000C12E
:00000001FF
