:020000040800F2
:1000000008050020D5000008E1220008091B0008AF
:1000100000000000000000000000000000000000E0
:100020000000000000000000000000002B2300087A
:1000300000000000000000002923000859230008E8
:100040000501000805010008050100080501000878
:100050000501000805010008050100080501000868
:100060000501000805010008050100080501000858
:100070000501000805010008050100080501000848
:100080000501000800000000000000000501000854
:100090000000000005010008050100080D1B000814
:1000A0000000000005010008050100080501000826
:1000B0000501000800000000910300080501000888
:1000C0000348854600F064F800480047E124000832
:1000D000080500200C4880F308880C480168090EC8
:1000E0000B4A914205D10B480B4901600B480C4962
:1000F00001600C4880470C480047FEE7FEE7FEE73A
:10010000FEE7FEE7FEE7000008050020040000000F
:100110001F00000018100240010000000000014014
:10012000000000004D240008C100000830B50B4657
:10013000014600202022012409E00D46D5409D42C1
:1001400005D31D469540491B254695404019154647
:10015000521E002DF1DC30BD03460B439B0703D03C
:1001600009E008C9121F08C0042AFAD203E00B787C
:100170000370401C491C521EF9D270470321001D18
:10018000401E037812021A43491EF9D510467047E3
:10019000064C0125064E05E0E36807CC2B430C3CDA
:1001A00098471034B442F7D3FFF78EFFFC250008C0
:1001B0003C26000870B58C180578401C6B075B0F57
:1001C00001D10378401C2A1106D10278401C03E0BB
:1001D00006780E70401C491C5B1EF9D12B0705D414
:1001E0000023521E0DD40B70491CFAE70378401C03
:1001F000CB1A921C03E01D780D70491C5B1C521E2B
:10020000F9D5A142D8D3002070BD70B50A011346BC
:10021000FF330468B133E55804242540446BA560DE
:100220000568446BED5853D0ED0865600468E358E9
:100230000224456B2340EB601346FF330568B5335A
:10024000ED58466B2D072D0F35610568EB58456B52
:100250001B041B0EEB611346FF330568B933ED58E1
:10026000466B35750568ED58466B2D0A7575056842
:10027000ED58466B2D0CB5750568EB58456B1B0E9C
:10028000EB75FF320368BD329B58456B2B760368D4
:100290009B58456B1B0A6B7603689B58456B1B0C80
:1002A000AB7603689A58436B120EDA762022002947
:1002B000016810D00B6913430B6101684A69102370
:1002C0009A434A61014620314A7E222A0AD023E01D
:1002D0006D0D2560AAE7CB681343CB6001684A69BE
:1002E000A243EEE702685369FF240134A34353613C
:1002F000026853696400A343536102685369640050
:10030000A3435361026853696400A34353610268C5
:1003100053692401A34353614A7E322A05D0012246
:100320004A7600F0C7FA002070BD1222F8E710B537
:1003300001684A69520852004A61014620314A7EEA
:10034000122A19D102685369FF240134A34353616F
:10035000026853696400A3435361026853696400EF
:10036000A3435361026853696400A3435361026865
:1003700053692401A34353614A7E322A05D00122E6
:100380004A7600F0A5FB002010BD2222F8E700000D
:1003900010B5024800F0B8F810BD00002C00002095
:1003A000094D7D24E40001226021284600F08DFCE7
:1003B000204600F0DBFB00226021284600F085FC8F
:1003C000204600F0D3FBEEE700040048F0B50C7DBA
:1003D00001231A46A2400468FF34FF340234256822
:1003E0001D4325600368FF33FF3302331C683F253C
:1003F0002D02AC431C600368FF33FF3302331C68DB
:100400004D6A2D022C431C600368FF33FF33023317
:10041000DC699443DC610924A401CB69251D002B10
:100420001AD10368FF33FF330233DE689643DE6080
:100430008B898E881B04B6B24F6933430668FF0070
:100440003F19F3510B890E881B04B6B24F69334331
:100450000668FF007F19F351CB69012B1AD103689D
:10046000FF33FF330233DE681643DE600B888E886D
:100470001B04B6B24F6933430668FF003C19335181
:100480000B898C891B04A4B24E6923430468F600CF
:10049000751963518B69002B036809D0FF33FF3353
:1004A00002335C6814435C600B69002B06D00CE0DF
:1004B000FF33FF3302335C689443F4E70368FF3390
:1004C000FF3302335C6994435C610B69012B06D1F5
:1004D0000368FF33FF3302335C6914435C61096ACC
:1004E000012906D10168FF31FF310231CB69134385
:1004F000CB610068FF30FF300230016849084900D5
:1005000001600020F0BD704770B504460068416985
:10051000C943C9070ED182684B49914307D082680D
:100520004A49914303D081684948884302D1204613
:10053000FFF7FDFE20684169C943890706D4C068FA
:10054000800703D000212046FFF75FFE2068416945
:10055000C943C90606D40069800703D0012120469B
:10056000FFF753FE20688169CA070121002A0AD0DB
:100570004269D243D20506D44269D243120402D45E
:10058000E26B0A43E263826992070BD54269D24368
:10059000920507D44269D243120403D4E26B0223CA
:1005A0001A43E263826953070422002B0ADA436983
:1005B000DB435B0506D44369DB431B0402D4E36BD6
:1005C0001343E36383695B065B0F23D04369DB431B
:1005D0001B051FD44369DB431B041BD485697023AF
:1005E0001D40402D26D006DC102D09D0202D0AD02C
:1005F000302D0CD11BE0502D1FD0602D07D11FE0F6
:10060000E56B082601E0E56B10263543E563856957
:100610009D438561E06B002808D020684368134340
:100620004360392001552046FFF76DFF70BDE56B33
:100630002026EAE7E56B4026E7E7E56B8026E4E75E
:10064000E56BFF260136E0E7030000040003000825
:1006500000000310F8B5040006D025462035687E5A
:100660000026002802D005E00120F8BD2E762046A5
:1006700000F086F80220687621680A6882430A60E2
:100680002068016801221143016000F025FB074644
:1006900004E000F021FBC01B0A285ED820684068F7
:1006A000C007F6D0206841680427C907002960D038
:1006B000A2698021012A02683DD08A430260E06974
:1006C000402101282068026837D08A430260206AEE
:1006D000202101282068026831D08A430260616AC3
:1006E0001020012921680A682BD082430A60A16A80
:1006F0000820012921680A6825D082430A60E06A3F
:1007000001282068016820D0B9430160E168A06831
:10071000626908432169114308436168491E08431F
:100720002168C8612068016849084900016000F03B
:10073000D3FA009015E00A43C0E70A43C6E70A432C
:10074000CCE70243D2E70243D8E73943DDE700F0C4
:10075000C3FA0099401A0A2803D9032068762E7636
:10076000F8BD20684068C007F1D120684068C00724
:1007700001D06F7678E7E663012068760020F8BD47
:10078000F0B505460068264991B0884245D1254814
:10079000C269012149060A43C261C06902260840B4
:1007A0000A900320C0020B9003200E90002404271F
:1007B00009200C960D940BA90F97C00600F0E2F9E2
:1007C000002211461E2000F00BFE1E2000F0FEFD50
:1007D0001548012201461C316963286313490460EE
:1007E000096887600661C4604160027544750594BC
:1007F000480B0090C8000694001D01900C48079219
:1008000000680892410BC000001D049402910390FF
:10081000099469462846FFF7D9FD11B0F0BD0000E4
:100820000064004000100240C80000201C000020AE
:100830002000002070B502462032537E012B02D0EA
:10084000537E122B33D1137E012B30D0012313762C
:10085000537E122B27D0222353760023C3630468D0
:100860006569FF2601363543656104686569760070
:1008700035436561046865697600354365610468E0
:1008800065697600354365610468656936013543FD
:100890006561137600680029416906D01022114372
:1008A0004161002070BD3223D6E70222F7E7022023
:1008B00070BD000070B50446406B8168042955D1B5
:1008C00040684104490F3CD12B4A410631D401060E
:1008D00023D48506AD0E042028492B0001F0E4FD49
:1008E0000A0D06181A0D0D0D0A11150D1078087550
:1008F000012001E0224A06E00861224800F046F8A3
:100900001FE01F4A121D126805E01D4A0832FAE76F
:10091000926800E052694A61EEE78006800E0300AB
:1009200001F0C2FD030F0F030F0017484069D060AC
:1009300007E08006800E012803D10020906001F0BE
:10094000F5FC606B8188890410D5407DC00702D01A
:1009500001F02EFE01E001F021FE606B407D80077A
:1009600002D501F039FE01E001F02CFE0021204605
:10097000FFF760FF70BD000004000020C8000020E9
:10098000ACF7FF1F2C000020E4000020F8B504465F
:1009900000688168274649012037002905DB816806
:1009A000090102D48168C9007ED5397E012906D0AB
:1009B000012139768168490103D5002107E0022031
:1009C000F8BD8168090101D5012100E002210D0176
:1009D0002E46FF3681368159C907C90F8151206BD8
:1009E0008368002B65D021688A591A43C368406820
:1009F000C00003431A438A51206B017C0907090F89
:100A000001612846FF30216885300A581209120119
:100A10000A5021680A58236B1B691A430A50206B3D
:100A200000901530FFF7AAFB010200982268007DB4
:100A300001432846FF3089301150206B0090193057
:100A4000FFF79CFB01020098FF35007E0143206800
:100A50008D354151787E222834D0122078760020BE
:100A6000E063387620684169FF2201321143416119
:100A70002068416952001143416120684169520078
:100A8000114341612068416952001143416120686E
:100A9000416912011143416121684A690120024301
:100AA0004A6121688A5900E00EE002438A51002021
:100AB000F8BD22689159C368008819434005014375
:100AC000915199E73220C9E7042078760120F8BDDA
:100AD00070B5114CA0886188451A21460F480969F4
:100AE000082D0BDA2A46FFF737FB0D48FFF74EFFBC
:100AF000206940192061608840190AE00822FFF748
:100B00002BFB0748FFF742FF20690830206160880F
:100B10000830608070BD000004000020DC00002070
:100B20002C00002070B50024014620314A78022AAA
:100B300003D004218163012416E0026813680E25A6
:100B4000AB431360026813685B085B00136001220B
:100B5000056C1346AB40C56B6B604A7000220A708F
:100B6000416B002900D08847204670BD31B500F0A8
:100B7000B3F8044600F0B0F80099001B8842F9D39E
:100B800038BD0000F8B5002389E001249C402A46C6
:100B9000A44622407ED04C68022C01D0122C0CD1ED
:100BA000DC08A40027183C6A5D07ED0E0F26AE4056
:100BB000B4430E69AE4026433E6205685E000324DE
:100BC000B4400F79A543BF07BF0FB7402F4307605D
:100BD0004D68012D05D0022D03D0112D01D0122D0D
:100BE0000ED18568CF68A543B7402F43876047681B
:100BF0006546AF430D79ED06ED0F9D403D434560E1
:100C0000C568A5438C68B4402C43C4604C68E400BC
:100C100044D5264CA56901263543A561A4699D08E4
:100C200034400094224CAD002F19BC689D072E0F54
:100C30000F25B540AC430925ED06A84201D100259A
:100C40000AE01C4DA84201D1012505E01A4DA84239
:100C500001D1022500E00525B5402543BD60174CB4
:100C600025684E689543F60300D5154325606568F1
:100C70004E689543B60300D515436560A5684E6878
:100C80009543F60200D51543A560E5684E68954387
:100C9000B60200E002E000D51543E5605B1C0A687F
:100CA0001546DA4000D070E7F8BD000000100240A1
:100CB0000000014000040048000800480004014012
:100CC0000069084000D001207047002A01D08161EE
:100CD000704781627047000001480068704700005B
:100CE0000000002070B5024640325378202B1CD102
:100CF0001378012B19D00123137024245470046835
:100D000025689D432560046825681E03B54325605A
:100D1000046825680D432560006801681943016077
:100D2000202050700020107070BD022070BD70B582
:100D3000024640325378202B1BD11378012B18D058
:100D4000012414702423537003681D68A5431D609B
:100D500005682B680F263602B34309021943296040
:100D6000006801682143016020205070002010704D
:100D700070BD022070BD7047704770B503689A69F6
:100D80001968D40507D50C0605D5446C01252C43FC
:100D900044642C02DC61530508D50B0606D5436C70
:100DA000082423434364E3010468E361920508D502
:100DB000090606D5416C0222114341641102026802
:100DC000D161416C0B22114202D0416C00F042FF14
:100DD00070BD026891691268436B002B00D0184700
:100DE0007047704770B5040006D0254640356878D6
:100DF0000026002802D005E0012070BD2E7020469C
:100E000000F0A2F9242068702068016849084900B0
:100E100001600F2160680906884321680861216824
:100E20008A680120C00382438A60E1680129A168C1
:100E300008D021229202114322689160E1680229C0
:100E400002D005E00143F7E701212268C9025160A1
:100E500021684A680F4B1A434A602168CA68824376
:100E6000CA60616920690843A169090208432168D1
:100E7000C860216AE0690843216808602068016849
:100E80000122114301606664202068702663AE7001
:100E9000002070BD0080000270470000FFB50546CD
:100EA00004464035687883B0202873D10C98002818
:100EB00071D00D9800286ED0287801286AD00120C2
:100EC0002870FFF709FF0746012200901923D1037C
:100ED000204601F031F9002876D1222068704020A8
:100EE000A870002666640C9860620D986085666341
:100EF0000E980090019704A90EC9204601F014F83D
:100F0000002804D0606C2E70042860D05CE0618DF5
:100F100009208002FF2905D9FF22228501231B0613
:100F2000009006E0618D21850090208D0123C2B2E2
:100F30005B062046049901F0EDF800970022042199
:100F400020460E9B01F0F8F800283DD12068416A48
:100F5000606A421C62620170208D401E81B2218550
:100F6000608D401E6085002921D1608D00281ED033
:100F700000970022802120460E9B01F0DDF800281A
:100F800022D1608DFF2807D9FF22228501231B066D
:100F9000009608E02AE01AE0608D20850096208DFA
:100FA0000123C2B25B062046049901F0B3F8608DBC
:100FB0000028C2D13A4620460E9901F0E1F80028F7
:100FC00007D0606C042802D0032007B0F0BD0120D8
:100FD000FBE721682020C86121684A68044B1A4059
:100FE0004A606870AE702E700020EEE70220ECE7D9
:100FF00000E800FEFFB5054604464035687883B03A
:10100000202876D10C98002874D00D98002871D033
:10101000287801286DD001202870FFF75DFE074673
:10102000012200901923D103204601F085F8002801
:1010300053D1212068704020A870002666640C9867
:1010400060620D98608566630E980090019704A910
:101050000EC9204600F09DFF002804D0606C2E7061
:1010600004286AD039E0608DFF2805D9FF22228547
:1010700001231B06009606E0608D20850096208DDA
:101080000123C2B25B062046049901F043F83A46B8
:1010900020460E9901F09BF8002803D0606C0428CC
:1010A0004BD01AE0606A411C616221680078886256
:1010B000608D401E6085208D401E0004000C208540
:1010C00024D1608D002821D0009700228021204665
:1010D0000E9B01F031F8002802D0032007B0F0BDCC
:1010E000608DFF2807D9FF22228501231B06009669
:1010F00008E024E021E0608D20850096208D01230A
:10110000C2B25B062046049901F004F8608D002805
:10111000BDD13A4620460E9901F032F80028BDD1E3
:1011200020682021C16120684268064B1A40426055
:101130006970AE702E700020D0E70120CEE702204B
:10114000CCE7000000E800FE00B50068134987B056
:10115000884220D10320400200900220019001200B
:101160000290032003900420049009206946C006E1
:10117000FFF708FD0A48C269012149050A43C26117
:10118000C0690022084005901146172000F028F998
:10119000172000F01BF907B000BD0000005400400C
:1011A000001002407047704770B504000FD02168EE
:1011B0001348086021681348086003CC4160206828
:1011C000083C21688860FFF787FD054608E001209C
:1011D00070BDFFF781FD401B272801D9032070BD9A
:1011E0002068C0680028F4D120680269E1688A425A
:1011F00001D0016101E004490160002070BD0000E0
:10120000CCCC000055550000AAAA00000068024995
:101210000160002070470000AAAA0000024801688F
:10122000491C0160704700000000002010B506480E
:101230000168102211430160002000F007F800F05F
:1012400017F8002010BD00000020024010B5044631
:1012500000F0FAF97D21C900FEF768FF00F038FCC4
:1012600000222146501E00F0BBF8002010BD0000F7
:10127000F0B5514C87B0E16920040143E161E169B7
:1012800001400591A06901252843A061A0690022C1
:10129000284005901146501F00F0A2F80022114688
:1012A000901E00F09DF800221146501E00F098F8A4
:1012B0006169A80401436161616901400591616947
:1012C00040100143616161690324014005911820C8
:1012D000002603946A4661C269463848FFF752FC0B
:1012E00078200927FF06009001966946049602952A
:1012F00003943846FFF746FC6420FFF737FC0821CB
:101300003846FFF7DDFC2E4C002802D12078284318
:10131000207010213846FFF7D3FC002803D1207835
:1013200002210843207020213846FFF7C9FC00281D
:1013300003D1207804210843207040213846FFF76C
:10134000BFFC002803D120780821084320702378AF
:1013500001221C48D2031C49012B02D181230370B6
:101360000A602378022B02D1822303700A6023785B
:10137000042B01D105700E602378082B02D1832342
:1013800003700A602378032B02D1852303700A605F
:101390002378062B02D1862303700A602378092B59
:1013A00002D1842303700A6023780C2B02D1872397
:1013B00003700A6007B0F0BD00100240000400484E
:1013C00024000020040000201C000020C106C90EDB
:1013D00001208840014908607047000000E100E0FA
:1013E00010B500F07FFF10BDF8B5044600683E4D13
:1013F000C00352D5E8690026C00007D4E969280473
:101400000143E961E969014001260091374801681B
:10141000C90510D40168821511430160FFF75CFC17
:10142000074604E0FFF758FCC01B642824D82F4867
:101430000068C005F6D5286A03273F02384020D04F
:101440006168394081421CD0286A2A6AB843012168
:1014500009040A432A622A6A8A432A622862C00768
:101460000FD0FFF739FC009008E0FFF735FC00993A
:10147000411A1F48814201D90320F8BD286A80071C
:10148000F3D5286A6168B84308432862002E04D067
:10149000E969012000078143E9612078C00705D090
:1014A000286BA168800880000843286320788006A4
:1014B00005D5286B10218843E1680843286320681C
:1014C000800305D5286B8021884361690843286320
:1014D0002088400505D5286B4021884321690843B1
:1014E00028630020F8BD000000100240007000409A
:1014F00088130000F8B505464E480E460068C00740
:10150000C00FB0420AD24B48016849084900314334
:1015100001600068C007C00FB04270D12878464C07
:10152000800705D56068F0218843A968084360609A
:101530002878C00753D06868012817D0022818D02F
:10154000032819D021688907002958DA61688908B9
:10155000890001436160FFF7BFFB69680746012905
:1015600013D002291DD0032927D034E02168890334
:10157000EAE721688901E7E7616BC903E4E7FFF760
:10158000ABFBC11B2D48814223D860680007800F48
:101590000128F4D123E0FFF79FFBC11B27488142BC
:1015A00017D860680007800F0228F4D117E0FFF712
:1015B00093FBC11B214881420BD860680007800F54
:1015C0000328F4D10BE0FFF787FBC11B1B488142C6
:1015D00001D90320F8BD60680007800FF3D11548DA
:1015E0000168C907C90FB1420BD901684908490010
:1015F000314301600068C007C00FB04201D0012034
:10160000F8BD2878400706D560680721090288439D
:10161000E9680843606000F01DF86168084A09063F
:10162000090F515CC840074908600020FFF70EFE13
:101630000020F8BD00200240001002408813000086
:10164000EC250008280000200148006870470000D1
:101650002800002030B516A30FCB89B06C460FC40C
:1016600017A30FCB0FC41A494A680C201446044034
:101670001848042C05D0184B082C04D00C2C00D191
:10168000184609B030BD9402240F6D462C5DC96A1E
:1016900004AD0907090FD203695C920F022A02D038
:1016A000032A00D11846FEF741FD6043E9E7000038
:1016B00002030405060708090A0B0C0D0E0F101093
:1016C0000102030405060708090A0B0C0D0E0F1092
:1016D0000010024000127A00006CDC02FEB50446E5
:1016E0000078F04EF04DC00748D068680007800FC2
:1016F00001281FD068680007800F022804D168689D
:10170000C003800F022815D06168012919D001207B
:101710008004002901D0052917D02968B143296028
:10172000296881432960606800281BD0FFF7D4FA3C
:10173000074613E02868800320D56068002876D02B
:101740001CE0286830432860EDE7296801432960E0
:10175000F7E7FFF7C1FAC01B642869D8286880033F
:10176000F7D50BE0FFF7B8FA074604E0FFF7B4FA45
:10177000C01B6428F1D828688003F7D4207880073C
:101780003ED568680007800F14D068680007800F96
:10179000022804D16868C003800F01280AD0E068DD
:1017A000002828681DD0012108432860FFF794FA1B
:1017B00007460BE0286880070BD5E068012836D182
:1017C00007E0FFF789FAC01B0228C6D828688007FF
:1017D000F7D52868F82188432169C90008432860A3
:1017E0000EE0400840002860FFF776FA074604E064
:1017F000FFF772FAC01B0228AFD828688007F7D419
:101800002078000724D5E0690028686A11D00121FA
:1018100008436862FFF760FA074604E0FFF75CFAE6
:10182000C01B022899D8686A8007F7D510E036E116
:10183000D1E0400840006862FFF74EFA074604E036
:10184000FFF74AFAC01B022887D8686A8007F7D4D6
:10185000207804274007002861DA00200190E86919
:10186000C00008D4E969B8060143E961E9690140AB
:101870000120009101908D480168C90511D40168CB
:10188000821511430160FFF727FA009005E0FFF78A
:1018900023FA0099401A642897D884480068C00544
:1018A000F5D5A06801280AD0002801D0052811D05C
:1018B000286A400840002862286AB84302E0286A83
:1018C000012108432862A068002812D0FFF704FA1B
:1018D00000900AE0286A38432862F0E7FFF7FCF935
:1018E0000099411A7248814275D8286A8007F5D557
:1018F0000DE0FFF7F1F9009006E0FFF7EDF9009930
:10190000411A6B48814266D8286A8007F5D401984D
:10191000002804D0E969012000078143E9612078AB
:10192000C00635D5606901280CD0401D686B24D0F5
:1019300038436863686B400840006863FFF7CCF980
:10194000074622E0686B38436863686B01210843EF
:101950006863FFF7C1F9074604E0FFF7BDF9C01B54
:10196000022838D8686B8007F7D5686BF821884360
:10197000A169C900084368630AE0B8436863F4E7F3
:10198000FFF7AAF9C01B022825D8686B8007F7D497
:101990002078800637D568680007800F032813D0A9
:1019A00068680007800F022804D16868C003800FB0
:1019B000032809D0206A0028686B16D0304368637A
:1019C000FFF78AF906460CE0686BC0031BD5206A56
:1019D000012864D117E05BE0FFF77EF9801B022845
:1019E00056D8686BC003F7D50DE0B0436863FFF7C6
:1019F00073F9064604E0FFF76FF9801B022847D809
:101A0000686BC003F7D4606A002846D0696809078C
:101A1000890F022943D0012636060228286805D0FE
:101A2000B0432860FFF758F9044633E0B04328601C
:101A3000FFF752F9074604E0FFF74EF9C01B0228F2
:101A400026D828688001F7D4E86A216B00090001D4
:101A50000843E862A16AE06A084369687B22D2030E
:101A6000914308436860286830432860FFF734F9E1
:101A7000044604E0FFF730F9001B022808D8286864
:101A80008001F7D509E0FFF727F9001B022801D9EB
:101A90000320FEBD28688001F5D40020FEBD012092
:101AA000FEBD000000000100001002400070004078
:101AB00088130000042204490428086902D09043D6
:101AC000086170471043FBE700E000E0704700004A
:101AD000094910B5401E884201D9012010BD074CAC
:101AE00060610321081F00F0FDFB0020A0610720BA
:101AF0002061002010BD0000FFFFFF0000E000E0BB
:101B000010B5FFF7E3FF10BDFEE7000010B5064873
:101B1000006880694005400F034802D0FFF72DF9A7
:101B200010BDFFF756F910BD6C00002010B5406ADB
:101B300001684A680123DB031A434A60826B002173
:101B40005163C26B5163014640314A78602A02D02A
:101B5000FFF747F910BD20224A70FFF70CF910BDBE
:101B6000F0B503460022CE0740332824B025002ECE
:101B700005D05E7842222746B74300D0F2228E0776
:101B800005D544265B7832439C4300D02A434B075B
:101B900001D5B8231A4311238B4301D190231A4353
:101BA00012238B4301D160210A43006801689143ED
:101BB00001600020F0BD01688A69D243920701D418
:101BC00000228A6200688169C943C90703D081691C
:101BD0000122114381617047F8B50546044640353E
:101BE000687828218143206804D00821C161002041
:101BF0002870F8BD8169C903CF0F8169FE230E0CDF
:101C000081681E408A05C168920D19408C46E168C2
:101C1000022912D10621D3090E400B409E420BD15E
:101C2000A16C491CA164A16C0229E2D10021A1642C
:101C30000823C361297007E0664604212046FFF7A8
:101C40008FFF00202870324639462046FFF794F86F
:101C5000F8BD0000F8B50026054640350446AE70D4
:101C60002C48E0626685606C0843606468782027D1
:101C7000282823D06878292820D068782A281DD0E1
:101C800007212046FFF76CFF6878602800D06F704E
:101C900026636663206801684A041F49026817D5F5
:101CA00001239B039A430260A06B41632E70A06BDB
:101CB000FEF738FF00281DD0A06B19E00321204655
:101CC000FFF74EFF28206870266314486063E1E741
:101CD000120410D502680123DB039A430260E06B13
:101CE00041632E70E06BFEF71DFF002802D0E06B11
:101CF000416B8847F8BD6878602804D02E70204674
:101D0000FFF76FF8F8BD6F702E702046FFF733F8BD
:101D1000F8BD00000000FFFF2D1B0008FD1F00089C
:101D200070B504461548E062002525632022204650
:101D300040300646427085706563480711D52068BB
:101D4000416A606A421C62620170208D002808D0DE
:101D5000401E2085608D401E6085606C0421084314
:101D6000606407212046FFF7FBFE21681020C86150
:101D700035702046FFF790F870BD00000000FFFFAF
:101D8000F8B50446006820260F46C6612168082081
:101D9000C86107212046FFF7E3FE20684168B202D0
:101DA00011434160206841682D4A1140416020463E
:101DB000FFF701FF206801682546490440350029E6
:101DC00002DB0168090406D5697821292FD0E16B6F
:101DD000096849686185628D0421002A02D0626C1D
:101DE0000A4362647A070FD5426A606A431C6362E1
:101DF0000270208D002807D0401E2085608D401E77
:101E00006085606C0843606400202063A870606394
:101E1000616C00290DD0616C2046FFF71BFF6878CC
:101E2000282803D139462046FFF77AFFF8BDA16B79
:101E3000CEE7E26A0B498A4206D0E1626E702870F2
:101E40002046FFF729F8F8BD69786E7022292870BE
:101E5000204602D0FFF7A7F9F8BDFFF7A3F9F8BDB8
:101E600000E800FE0000FFFF70B500260446403485
:101E70000546A6706178282029290ED061782A2984
:101E80000AD160702220286302212846FFF768FEED
:101E900026702846FFF786F970BD60702120286300
:101EA00001212846FFF75CFE26702846FFF77BF9E4
:101EB00070BD0000F7B5044600680E468069C04357
:101EC000C0062CD420272546403520688069C043B1
:101ED00080060FD5701CF8D0002E05D0FEF7FCFE52
:101EE0000299401AB042F0D96F700020A870287093
:101EF0000320FEBD21681020C8612068C76120460C
:101F0000FFF759FE20684168064A114041600420ED
:101F100060646F700020A87028700120FEBD002052
:101F2000FEBD000000E800FEF8B50446012016469C
:101F300040031D46DAB20090079F0023204600F0C0
:101F4000E9F83A462046069900F041F9002803D006
:101F5000606C04281BD018E02846F5B2012809D08F
:101F60002168300A88623A462046069900F02FF927
:101F70000028EDD12068856200970022402120468C
:101F8000069B00F0D9F8002800D00320F8BD0120FE
:101F9000F8BDF8B504460120164640031D46DAB2E6
:101FA000C3020090079F204600F0B4F83A4620464E
:101FB000069900F00CF9002803D0606C04281BD0AF
:101FC00018E02846F5B2012809D02168300A886255
:101FD0003A462046069900F0FAF80028EDD120682C
:101FE00085620097002280212046069B00F0A4F81D
:101FF000002800D00320F8BD0120F8BDF8B5054643
:1020000004464035287816460F46012811D0012095
:1020100028703F49F8062DD5F0062BD5628D10208B
:10202000002A08D02168C861606C042108436064FC
:1020300062E00220F8BDE36A01225206934202D018
:10204000E36A934202D16A78282A08D0E26A8A4277
:1020500002D06978292907D02168C8614CE0394647
:102060002046FFF75DFE47E02168C8612046FFF784
:10207000A2FD3EE0780717D5700715D5608D0028C2
:102080000BD02068426A606A431C63620270208D34
:10209000401E2085608D401E6085608D00282BD1FC
:1020A000E06A884225D127E0380706D5300704D5F5
:1020B00039462046FFF790FD1EE0B8071CD5B00753
:1020C0001AD5608D00280CD0606A411C61622168BD
:1020D00000788862608D401E6085208D401E2085BE
:1020E0000AE0E06A01210906884202D0E06A00287D
:1020F00002D12046FFF7B8FEB80605D5B00603D5D5
:1021000039462046FFF73CFE00202870F8BD00004D
:102110000000FFFF70B50568049C68688905890D9B
:102120001204044E114319433040214301436960B6
:1021300070BD0000009800FCF8B51C4617460E461E
:10214000054611E0601C0FD0002C05D0FEF7C4FD41
:102150000699401AA04207D9202040356870002017
:10216000A87028700320F8BD28688169304688432C
:1021700004D00020B842E5D00020F8BD0120F9E7E6
:1021800070B516460D4604461AE0324629462046EA
:10219000FFF790FE002801D0012070BD002D04D073
:1021A000FEF79AFD801BA8420AD9616C20200143EA
:1021B0006164403460700020A0702070032070BD06
:1021C00020688069C0438006DFD4002070BD70B5F0
:1021D00016460D4604461CE0324629462046FFF7C7
:1021E00069FE002801D0012070BD681C11D0002DAF
:1021F00004D0FEF771FD801BA8420AD9616C202033
:1022000001436164403460700020A070207003209E
:1022100070BD20688069C0438007DDD4002070BD98
:102220000EB50A2204210748029201910090022370
:102230000022A0210448FEF731FE024808388168D8
:10224000C1600EBD0C0000206C00002010B50F48CE
:102250000D490160782141600021032281609204D0
:102260000261C160012281611205C16142610162A6
:10227000012281624262C162FEF7ECF9002801D0BE
:10228000FEF78EF810BD0000006400402C00002016
:1022900010B511480F49016010494160002181606B
:1022A0000161416181610122C161C2600162FEF789
:1022B00099FD00280BD100210748FEF713FD0028E7
:1022C00005D100210448FEF732FD002801D0FEF7B9
:1022D00067F810BD005400406C0000205D3E3020C7
:1022E000704700008307FF22DB0E9A408907090E22
:1022F000994000280BDA0007000F083883080848C7
:102300009B001818C36993430B43C361704783084C
:1023100004489B001B1818689043084318607047D6
:1023200000ED00E000E400E0704770470EB50A22BF
:102330000421074802920191009002230022A0216B
:102340000448FEF757FE0A20FEF710FC0EBD000001
:102350000C0000206C00002010B5FEF75FFFFFF7B7
:10236000CFFB10BD30B597B009200090012001903F
:10237000039000040A900001022500240B900995A7
:102380000C946846FFF7AAF9002813D107200D9096
:102390000F9401210E9510940DA8FFF7ABF80028BB
:1023A00008D1202011901020149011A8FFF71CF8DC
:1023B000002801D0FDF7F4FFFFF746F97D21C900A1
:1023C000FDF7B4FEFFF784FB0420FFF773FB002248
:1023D0001146501EFFF704F817B030BDF8B5164E81
:1023E00071680C2001401548154C03D0042901D018
:1023F000082909D02060706812490006000F085CA7
:102400002168C1402160F8BD716872680323DB0355
:102410001A4089020D0FF16A01270907090F3F04CD
:10242000491CAD1CBA4202D09A4200D10648FDF7C1
:102430007DFE6843DEE700000010024000127A00D3
:1024400028000020EC250008006CDC02134801681D
:102450000122114301604168114A11404160016845
:10246000104A114001600168012292049143016009
:1024700041683F22120491434160C16A0909090180
:10248000C162016BFF22D43291430163416B490861
:102490004900416300218160704700000010024044
:1024A0000CB8FF08FFFFF6FE30B47446641E2578B2
:1024B000641CAB4200D21D46635D5B00E31830BC78
:1024C000184702E008C8121F08C1002AFAD1704755
:1024D0007047002001E001C1121F002AFBD17047A4
:1024E00008B5FEF7A3FEFFF73DFFFFF777FF27488C
:1024F0004269012189050A43426142690A4000920A
:10250000426949110A434261406908400090FFF75F
:102510009DFEFFF7BDFE1F481D490160002141607F
:102520007D210901C1608160FEF73EFE002801D0D7
:10253000FDF736FFFFF774FE00F03AF800F04CF8B4
:102540000A20FEF713FB00F029F800F03BF81148D1
:1025500000218C38FEF76EF90F4C64216078401C26
:10256000C0B26070FDF7E2FD002902D10948FEF714
:102570004DFEA068E168884203D0E068A060FFF7E4
:10258000D5FE0120FEF7F2FAE7E700000010024056
:1025900000300040B80000200400002010B50022E8
:1025A00008210248FEF791FB10BD0000000400481E
:1025B00010B5012208210248FEF787FB10BD00007C
:1025C0000004004810B5002210210248FEF77DFBF0
:1025D00010BD00000004004810B50122102102487F
:1025E000FEF773FB10BD000000040048000000006F
:1025F00000000000010203040607080900000008AB
:1026000000000008606A0000D024000800000008F4
:1026100000000008606A0000D0240008606A00081A
:10262000000000202C000000C22400088C6A000872
:102630002C000020DC040000D22400080000000070
:10264000000000000000000000000000000000008A
:10265000000000000000000000000000000000007A
:10266000000000000000000000000000000000006A
:10267000000000000000000000000000000000005A
:1040600054014A01680172017C0154014A0168014E
:1040700072017C01860190019A01A401AE01B80190
:1040800054014A01680172017C0154014A0168012E
:1040900072017C01860190019A01A401AE01B80170
:1040A00054014A01680172017C0154014A0168010E
:1040B00072017C01860190019A01A401AE01B80150
:1040C0001200220032004B0064009600C800E1009C
:1040D000FA00FF00040104010401040104010401C9
:1040E0005A009B00DC0004012C01C201580220038D
:1040F000E8037E04140514051405140514051405BD
:10410000AA003601C2015802EE026B03E8034C0418
:10411000B0044605DC05DC05DC05DC05DC05DC055A
:10412000000000000000000000000000000000008F
:10413000000000000000000000000000000000007F
:10414000000000000000000000000000000000006F
:10415000000000000000000000000000000000005F
:10446000040118012C014001540168017C0118016C
:104470002C014001540168017C019001A401B801A4
:10448000040118012C014001540168017C0118014C
:104490002C014001540168017C019001A401B80184
:1044A000040118012C014001540168017C0118012C
:1044B0002C014001540168017C019001A401B80164
:1044C0007800C900F8017D029803DB0436065A081B
:1044D0001509930A930A930A930A930A930A930A73
:1044E0000002C503C2050508650A400DD00FC012C1
:1044F000101510181018101810181018101810187F
:10450000400483075309500F7011C015101A701E14
:10451000C0220027002700270027002700270027A8
:10452000000000000000000000000000000000008B
:10453000000000000000000000000000000000007B
:10454000000000000000000000000000000000006B
:10455000000000000000000000000000000000005B
:104860004001540168017C019001A401A401A4014C
:10487000A401A401A401A401A401A401A401B801FC
:104880004001540168017C019001A401A401A4012C
:10489000A401A401A401A401A401A401A401B801DC
:1048A0004001540168017C019001A401A401A4010C
:1048B000A401A401A401A401A401A401A401B801BC
:1048C0004C04E20478054006A4060807D007D00788
:1048D000D007D007D007D007D007D007D007D00720
:1048E000D60634086009280AF00AE40C480D480D81
:1048F000480D480D480D480D480D480D480D480D10
:104900008C0AB80BE40C100E04105C128813881388
:1049100088138813881388138813881388138813BF
:104920000000000000000000000000000000000087
:104930000000000000000000000000000000000077
:104940000000000000000000000000000000000067
:1050000067006F0078007F0086008C009200990096
:10501000A000A800AF00BD00CA00CA00CA00CA00B4
:10502000770081008B0094009C00A300AA00B200CE
:10503000BA00C200CA00DB00EC00EC00EC00EC009F
:10504000860092009E00A700B100B800BF00C80013
:10505000D100DA00E200F7000C010C010C010C0198
:105060009300A100AF00B900C400CC00D300DD0064
:10507000E600F000F90011012901290129012901A7
:10508000A000AF00BF00CA00D600DE00E600F000BE
:10509000FA0004010E0129014501450145014501C0
:1050A000AC00BD00CE00DA00E700EF00F700010120
:1050B0000C011701210140015F015F015F015F01E8
:1050C000B700C900DC00E900F600FF00070112018B
:1050D0001D0128013301550178017801780178011B
:1050E000C100D500E900F70005010D0116012101FD
:1050F0002C013801430169018F018F018F018F015C
:10510000CA00DF00F500040113011B0123012F0178
:105110003B01460152017B01A401A401A401A401A9
:10512000D200E900010110012001280130013C01F9
:10513000480154015F018C01B901B901B901B901FC
:10514000DA00F3000B011C012C0134013C01480181
:10515000540160016C019C01CC01CC01CC01CC015B
:10516000E100FB001501260137013F014701530112
:105170005F016B017701AA01DE01DE01DE01DE01C4
:10518000E80003011F0130014101490151015D01A6
:105190006A0176018201B801EE01EE01EE01EE0135
:1051A000EE000B01280139014B0153015A0167013F
:1051B00073017F018B01C501FE01FE01FE01FE01AD
:1051C000F40012013001420155015C0163016F01DD
:1051D0007C0188019401D1010D020D020D020D0226
:1051E000F900180137014A015D0164016B01780182
:1051F000840190019C01DC011B021B021B021B02AB
:10520000FE001E013F01520165016C0172017F0128
:105210008C019801A401E601280228022802280234
:1052200002012401450159016D01730179018601D3
:1052300093019F01AB01F0013502350235023502C1
:10524000070129014C01600174017A0180018C0180
:105250009901A501B101F90140024002400240025A
:105260000A012E01520166017A0180018501920135
:105270009F01AB01B70101024B024B024B024B02F3
:105280000E01330157016C01810186018B019801E8
:10529000A501B001BC010902550255025502550293
:1052A000110137015C01710186018B0190019D01A3
:1052B000AA01B501C10110025F025F025F025F0235
:1052C00014013B01610176018C0190019501A2015D
:1052D000AE01BA01C50117026802680268026802DD
:1052E00017013E0166017B01910195019901A6011B
:1052F000B301BE01C9011D0270027002700270028A
:105300001A0142016A018001960199019D01AA01D9
:10531000B701C201CD012302780278027802780237
:105320001C0145016E0184019A019E01A101AE019B
:10533000BA01C501D10128028002800280028002E8
:105340001C0145016E0184019A019E01A101AE017B
:10535000BA01C501D10128028002800280028002C8
:105360001C0145016E0184019A019E01A101AE015B
:10537000BA01C501D10128028002800280028002A8
:105380001C0145016E0184019A019E01A101AE013B
:10539000BA01C501D1012802800280028002800288
:1053A0001C0145016E0184019A019E01A101AE011B
:1053B000BA01C501D1012802800280028002800268
:1053C0001C0145016E0184019A019E01A101AE01FB
:1053D000BA01C501D1012802800280028002800248
:1053E0001C0145016E0184019A019E01A101AE01DB
:1053F000BA01C501D1012802800280028002800228
:10540000050006000700080009000A000B000C0058
:105410000D000E000F001000110012001300140008
:10542000150016001700180019001A001B001C00B8
:105430001D001E001E001E001E001E001E001E007D
:1054400040014A0154015E01680172017C0186013C
:1054500090019A01A401AE01B801C201C201C201CA
:10546000000000000000000000000000000000003C
:10547000000000000000000000000000000000002C
:10548000000000000000000000000000000000001C
:10549000000000000000000000000000000000000C
:10600000140028003C005000640078008C00A000C0
:10601000B400C800C800C800C800C800C800C80054
:106020000200030004000500060007000800090044
:106030000A000A000A000A000A000A000A000A0010
:106040000A000C000E0010001200140014001400CE
:1060500014001400140014001400140014001400A0
:10606000010002000300040005000600070008000C
:106070000700080009000A000B000D000E000F00C9
:106080000B000E001100140017001A001C001F0066
:106090000F00130018001C001F0023002600290019
:1060A000140019001F00240027002B002E003100CF
:1060B0001B00200024002900300036003D00430072
:1060C000230027002B002F0036003D0043004A002C
:1060D0002A002D00310034003A00410047004D00F5
:1060E0002F00340039003E0045004C0053005A0098
:1060F00032003B0044004D0054005B006200690028
:1061000032003B0044004D0054005B006200690017
:1061100032003B0044004D0054005B006200690007
:1061200032003B0044004D0054005B0062006900F7
:1061300032003B0044004D0054005B0062006900E7
:1061400032003B0044004D0054005B0062006900D7
:1061500032003B0044004D0054005B0062006900C7
:106160000500060008000A000B000E0010001200D7
:106170001400170019001B001E0020002300260039
:1061800008000A000C000F001100140017001A008C
:106190001D002000240027002A002D0031003400BB
:1061A0000A000D001000130016001A001D00210047
:1061B000250029002D003000330037003B0040004F
:1061C0000C001000130017001A001F002300270006
:1061D0002B003000340038003C00400044004900EF
:1061E0000E00120016001B001F00240028002D00C6
:1061F000310036003C004000450049004D0052008F
:106200000D001100140018001C0023002A002D00AE
:106210003100390041004F005D0066006E007B00D8
:1062200014001A001F0025002B00310038003E002A
:1062300044004D0057005F0066006E007600850048
:106240001E00280031003A0044004F005B00660049
:10625000720080008F009B00A800B700C600D90024
:1062600029003600430050005D006D007E008F0065
:10627000A000B300C600D800EB00000116012C01FD
:1062800029003600430050005D006D007E008F0045
:10629000A000B300C600D800EB00000116012C01DD
:1062A00029003600430050005D006D007E008F0025
:1062B000A000B300C600D800EB00000116012C01BD
:1062C00029003600430050005D006D007E008F0005
:1062D000A000B300C600D800EB00000116012C019D
:1062E00029003600430050005D006D007E008F00E5
:1062F000A000B300C600D800EB00000116012C017D
:1063000029003600430050005D006D007E008F00C4
:10631000A000B300C600D800EB00000116012C015C
:1063200029003600430050005D006D007E008F00A4
:10633000A000B300C600D800EB00000116012C013C
:1063400029003600430050005D006D007E008F0084
:10635000A000B300C600D800EB00000116012C011C
:1063600029003600430050005D006D007E008F0064
:10637000A000B300C600D800EB00000116012C01FC
:106380002F003E004C005C006C007E009000A200DC
:10639000B500CA00DE00F400090121013A015301F1
:1063A0003300430053006400750089009D00B20073
:1063B000C800DF00F7000E01250140015A017701F6
:1063C00038004A005B006D0080009500AB00C30000
:1063D000DA00F3000C01270142015A017301910117
:1063E0003B004E00610075008900A000B700CF009F
:1063F000E70002011D013901550171018E01AE0155
:106400003D00500064007A009100A800C000DA004E
:10641000F40010012C01490166018601A601C701A3
:106420003D00500064007A009100A800C000DA002E
:10643000F40010012C01490166018601A601C70183
:106440003D00500064007A009100A800C000DA000E
:10645000F40010012C01490166018601A601C70163
:106460003D00500064007A009100A800C000DA00EE
:10647000F40010012C01490166018601A601C70143
:106480003D00500064007A009100A800C000DA00CE
:10649000F40010012C01490166018601A601C70123
:1064A0003D00500064007A009100A800C000DA00AE
:1064B000F40010012C01490166018601A601C70103
:1064C0003D00500064007A009100A800C000DA008E
:1064D000F40010012C01490166018601A601C701E3
:1064E0003D00500064007A009100A800C000DA006E
:1064F000F40010012C01490166018601A601C701C3
:106500003D00500064007A009100A800C000DA004D
:10651000F40010012C01490166018601A601C701A2
:106520003D00500064007A009100A800C000DA002D
:10653000F40010012C01490166018601A601C70182
:106540003D00500064007A009100A800C000DA000D
:10655000F40010012C01490166018601A601C70162
:106560005E01680172017C01860190019A01A4011B
:106570005E01680172017C01860190019A01A4010B
:106580005E01680172017C01860190019A01A401FB
:106590005E01680172017C01860190019A01A401EB
:1065A0005E01680172017C01860190019A01A401DB
:1065B0005E01680172017C01860190019A01A401CB
:1065C0005E01680172017C01860190019A01A401BB
:1065D0005E01680172017C01860190019A01A401AB
:1065E0005E01680172017C01860190019A01A4019B
:1065F0005E01680172017C01860190019A01A4018B
:106600005E01680172017C01860190019A01A4017A
:106610005E01680172017C01860190019A01A4016A
:106620005E01680172017C01860190019A01A4015A
:106630005E01680172017C01860190019A01A4014A
:106640005E01680172017C01860190019A01A4013A
:106650005E01680172017C01860190019A01A4012A
:10666000DC00E600F000FA0004010E01180122012E
:106670002C01360140014A0154015E01680172019A
:10668000DC00E600F000FA0004010E01180122010E
:106690002C01360140014A0154015E01680172017A
:1066A000DC00E600F000FA0004010E0118012201EE
:1066B0002C01360140014A0154015E01680172015A
:1066C000DC00E600F000FA0004010E0118012201CE
:1066D0002C01360140014A0154015E01680172013A
:1066E000DC00E600F000FA0004010E0118012201AE
:1066F0002C01360140014A0154015E01680172011A
:10670000DC00E600F000FA0004010E01180122018D
:106710002C01360140014A0154015E0168017201F9
:10672000DC00E600F000FA0004010E01180122016D
:106730002C01360140014A0154015E0168017201D9
:10674000DC00E600F000FA0004010E01180122014D
:106750002C01360140014A0154015E0168017201B9
:10676000FA0004010E01180122012C01360140013A
:106770004A0154015E01680172017C0186019001A9
:10678000FA0004010E01180122012C01360140011A
:106790004A0154015E01680172017C018601900189
:1067A000FA0004010E01180122012C0136014001FA
:1067B0004A0154015E01680172017C018601900169
:1067C000FA0004010E01180122012C0136014001DA
:1067D0004A0154015E01680172017C018601900149
:1067E000FA0004010E01180122012C0136014001BA
:1067F0004A0154015E01680172017C018601900129
:10680000FA0004010E01180122012C013601400199
:106810004A0154015E01680172017C018601900108
:10682000FA0004010E01180122012C013601400179
:106830004A0154015E01680172017C0186019001E8
:10684000FA0004010E01180122012C013601400159
:106850004A0154015E01680172017C0186019001C8
:10686000FA0004010E01180122012C013601400139
:106870004A0154015E01680172017C0186019001A8
:10688000FA0004010E01180122012C013601400119
:106890004A0154015E01680172017C018601900188
:1068A000FA0004010E01180122012C0136014001F9
:1068B0004A0154015E01680172017C018601900168
:1068C000FA0004010E01180122012C0136014001D9
:1068D0004A0154015E01680172017C018601900148
:1068E000FA0004010E01180122012C0136014001B9
:1068F0004A0154015E01680172017C018601900128
:10690000FA0004010E01180122012C013601400198
:106910004A0154015E01680172017C018601900107
:10692000FA0004010E01180122012C013601400178
:106930004A0154015E01680172017C0186019001E7
:10694000FA0004010E01180122012C013601400158
:106950004A0154015E01680172017C0186019001C7
:10696000FA0004010E01180122012C013601400138
:106970004A0154015E01680172017C0186019001A7
:10698000FA0004010E01180122012C013601400118
:106990004A0154015E01680172017C018601900187
:1069A000FA0004010E01180122012C0136014001F8
:1069B0004A0154015E01680172017C018601900167
:1069C000FA0004010E01180122012C0136014001D8
:1069D0004A0154015E01680172017C018601900147
:1069E000FA0004010E01180122012C0136014001B8
:1069F0004A0154015E01680172017C018601900127
:106A0000FA0004010E01180122012C013601400197
:106A10004A0154015E01680172017C018601900106
:106A2000FA0004010E01180122012C013601400177
:106A30004A0154015E01680172017C0186019001E6
:106A4000FA0004010E01180122012C013601400157
:106A50004A0154015E01680172017C0186019001C6
:106A60000000000001000000000000000000000025
:106A70000000000000000000000000000000000016
:0C6A8000008000000000000000127A00FE
:04000005080000C12E
:00000001FF
